:1000000010C01FC01EC01DC01CC01BC01AC019C01C
:1000100018C017C016C015C014C013C012C011C03C
:1000200010C011241FBECFE5D1E0DEBFCDBF20E060
:10003000A0E6B0E001C01D92A236B207E1F7BED043
:10004000F0C0DECFDD98D59A1FBC109261001092EF
:10005000600008952091600030916100C90195957C
:100060008795959587950196820F931F90936100D0
:10007000809360008F3F910554F08FEF90E0909354
:10008000610080936000DD9A1FBC8FEF0895DD98BA
:1000900088BD8BE08EBD81E28FBD88B50895DADF23
:1000A0008F3F41F0A89587EA9EED0197F1F700C0D8
:1000B0000000F5CF08952091600030916100C901E2
:1000C00044E0959587954A95E1F780959095820F44
:1000D000931F90936100809360001816190644F0F6
:1000E0001092610010926000DD981FBC80E00895BE
:1000F000DD9888BD8BE08EBD81E28FBD88B5089507
:10010000DADF882341F0A89587EA9EED0197F1F7A1
:1001100000C00000F5CF0895C498DE98DF98D69A05
:10012000D79A089517B813B886EE86B9349A349BD7
:10013000FECF349A20E180E090E0349BFECF349AE9
:1001400044B155B1840F951F2150B9F724E096951D
:1001500087952A95E1F79C01215F3F4FDE98DF9854
:1001600089E18A95F1F7000088E0DE9ADF989FE147
:100170009A95F1F7DE98DF9A9EE19A95F1F7815012
:10018000A1F78FE18A95F1F7DE9ADF989FE19A95C2
:10019000F1F7DE98DF988FE0349BFECF349A8150E0
:1001A000D9F79DE2349BFECF349A44B155B1241760
:1001B000350708F48F5F9150A9F70895A89581B588
:1001C000886181BD89E281BD8FEF81B93BDFA4DF0A
:1001D000D0E0C0E0A895A6DF883060F060DF2FE7B0
:1001E00084E995E4215080409040E1F700C0000090
:1001F000C4E6F0CFC11103C05EDFD82F01C0C150EB
:10020000DD2329F087EA9EED0197F1F707C09FEB08
:1002100021E582E0915020408040E1F700C00000DD
:06022000D9CFF894FFCFD6
:00000001FF
