:1000000010C01FC01EC01DC01CC01BC01AC019C01C
:1000100018C017C016C015C014C013C012C011C03C
:1000200010C011241FBECFE5D1E0DEBFCDBF20E060
:10003000A0E6B0E001C01D92A436B207E1F708D1F6
:1000400075C1DECFDD98D59A1FBC10926100109269
:100050006000089581E087B913B886EE86B9349AB6
:10006000349BFECF349A20E480E090E0349BFECFB6
:10007000349A44B155B1840F951F2150B9F70895B2
:100080008091600090916100181619062CF48F3F42
:10009000910524F482E0089580E0089581E00895B8
:1000A0002091600030916100C901959587959595E3
:1000B00087950196820F931F909361008093600053
:1000C0008F3F910554F08FEF90E090936100809303
:1000D0006000DD9A1FBC8FEF0895DD9888BD8BE02E
:1000E0008EBD81E28FBD88B50895DADF8F3F41F084
:1000F000A89587EA9EED0197F1F700C00000F5CFC3
:1001000008952091600030916100C90144E0959507
:1001100087954A95E1F780959095820F931F90936C
:100120006100809360001816190644F01092610077
:1001300010926000DD981FBC80E00895DD9888BDB6
:100140008BE08EBD81E28FBD88B50895DADF88230C
:1001500041F0A89587EA9EED0197F1F700C00000F5
:10016000F5CF0895C498DE98DF98D69AD79A089567
:1001700017B813B886EE86B9349A349BFECF349AFA
:1001800080E120E030E0349BFECF349A44B155B199
:10019000240F351F8150B9F784E0369527958A954D
:1001A000E1F7215F3F4FDE98DF9800C0DE98DF98CF
:1001B00089E18A95F1F7000088E0DE98DF9800C0B9
:1001C000DE9ADF989DE19A95F1F7DE98DF9800C0FE
:1001D000DE98DF9A9EE19A95F1F7815071F78DE1F3
:1001E0008A95F1F7DE98DF9800C0DE9ADF989DE1EE
:1001F0009A95F1F7DE98DF9800C0DE98DF981092AC
:100200006300109262004FE0349BFECF349A64B1D9
:1002100075B12617370760F48091620090916300F2
:10022000860F971F821B930B90936300809362004D
:10023000415051F79DE280E0349BFECF349A44B1A7
:1002400055B12417350708F48F5F9150A9F7089529
:10025000A89581B5886181BD89E281BD8FEF81B9A3
:10026000F1DE80DFC0E0D0E000E0C12CD12CF12C29
:1002700010E0A89505DF811102C0ECDE6C0178DF8B
:10028000883038F48091620090916300813E91053E
:1002900060F4023051F020E8C21627E5D20610F0D3
:1002A000013049F422DF14E606C0111103C029DF32
:1002B000F82E01C01150209711F0219701C000E0E5
:1002C0008091620090916300813E910590F4CB3D56
:1002D000DE4248F4D5DE882349F0D2DEC0EEDEE20D
:1002E000813039F410C0C0EEDEE203C0C0EEDEE2C1
:1002F00001E0143651F49FE721E387E1915020405B
:100300008040E1F710C002E010E0FF2029F087EA0A
:100310009EED0197F1F707C09FEB21E582E0915038
:1003200020408040E1F700C00000A3CFF894FFCF49
:00000001FF
